:020000040800F2
:100000001006002049010008170300080F0300082C
:1000100013030008B50100088D040008000000006B
:100020000000000000000000000000003D03000888
:10003000B9010008000000001903000829040008A5
:100040006301000863010008630100086301000800
:1000500063010008630100086301000863010008F0
:1000600063010008630100086301000863010008E0
:1000700063010008630100086301000863010008D0
:1000800063010008630100086301000863010008C0
:1000900063010008630100086301000863010008B0
:1000A00063010008630100086301000863010008A0
:1000B0006301000863010008630100086301000890
:1000C0006301000863010008630100086301000880
:1000D0006301000863010008630100086301000870
:1000E0006301000863010008630100086301000860
:1000F0006301000863010008630100086301000850
:10010000630100086301000863010008630100083F
:10011000630100086301000863010008630100082F
:10012000630100086301000863010008630100081F
:10013000DFF810D000F02CF8004800470507000851
:10014000AFF30080100600200648804706480047AD
:10015000FEE7FEE7FEE7FEE7FEE7FEE7FEE7FEE777
:10016000FEE7FEE72D0400083101000830B5054622
:100170002A460B4612F8010B13F8014B08B1A042B6
:10018000F8D01CB1002802D06D1CF1E7284630BD24
:10019000064C074D06E0E06840F0010394E80700D4
:1001A00098471034AC42F6D3FFF7C6FF300800087A
:1001B0005008000800BFFEE770472DE9F0410246F5
:1001C00000250026002000230024002791F803C00A
:1001D0000CF00F0591F803C00CF0100CBCF1000FEF
:1001E00003D091F802C04CEA050591F800C0BCF1BB
:1001F000000F31D0146800202BE04FF0010C0CFAF6
:1002000000F3B1F800C00CEA03069E4220D183003F
:100210004FF00F0C0CFA03F7BC4305FA03FC4CEA51
:10022000040491F803C0BCF1280F06D14FF0010C73
:100230000CFA00FCC2F814C00AE091F803C0BCF14B
:10024000480F05D14FF0010C0CFA00FCC2F810C0A9
:10025000401C0828D1D31460B1F800C0BCF1FF0FD6
:1002600034DD546800202EE000F1080C4FF0010846
:1002700008FA0CF3B1F800C00CEA03069E4221D143
:1002800083004FF00F0C0CFA03F7BC4305FA03FC94
:100290004CEA040491F803C0BCF1280F05D100F129
:1002A000080C08FA0CF8C2F8148091F803C0BCF1ED
:1002B000480F07D100F1080C4FF0010808FA0CF8BC
:1002C000C2F81080401C0828CED35460BDE8F081ED
:1002D0000246002093680B400BB1012000E0002093
:1002E000704702460020D3680B400BB1012000E0AC
:1002F000002070474FF6FF710180022181700421B8
:10030000C17070470AB1016100E04161704700BFF0
:10031000FEE700BFFEE770477047000029B1064ABC
:1003200092690243044B9A6104E0034A9269824352
:10033000014B9A617047000000100240704710B5F1
:1003400000F002F810BD00000CB5002001900090F4
:100350003348006840F480303149086000BF3048BD
:10036000006800F4003000900198401C0190009853
:1003700018B90198B0F5A06FF1D12948006800F4D0
:10038000003010B10120009001E0002000900098A2
:10039000012843D12348006840F01000214908603B
:1003A0000846006820F0030008600846006840F036
:1003B000020008601A4840681949486008464068C9
:1003C00048600846406840F48060486008464068DD
:1003D00020F47C1048600846406840F4E81048600B
:1003E0000846006840F08070086000BF0C48006854
:1003F00000F000700028F9D00948406820F00300A0
:10040000074948600846406840F00200486000BF65
:100410000348406800F00C000828F9D10CBD00002A
:1004200000100240002002407047000010B5134841
:10043000006840F001001149086008464068104912
:1004400008400E494860084600680E4908400B49BC
:1004500008600846006820F480200860084640686C
:1004600020F4FE0048604FF41F008860FFF767FF2C
:100470004FF000600449086010BD00000010024009
:100480000000FFF8FFFFF6FE08ED00E000BFFEE70A
:1004900002E008C8121F08C1002AFAD1704770474D
:1004A000002001E001C1121F002AFBD170470000AB
:1004B00070B50646084C09E02468A4F118053146D9
:1004C0002868FFF753FE08B1284670BD024920682E
:1004D0008842F1D10020F8E70000002004A101606B
:1004E000002141600181C1600161416170470000EC
:1004F0002000000070B5054605B970BD202000F051
:1005000061F9044628682060686860602889208155
:10051000E868E060286920616869606104F118009A
:1005200000F0E4F804F11801024800F0E2F800BF1E
:10053000E3E700000000002010B5044614B94FF0B6
:10054000FF3010BD21896068FFF7C2FEF9E70000A7
:1005500000B589B001A8FFF7C1FF11A001901248B2
:1005600002900120ADF80C0010480490104806904D
:100570000020059001A8FFF7BDFF0EA001900F48D5
:1005800002904014ADF80C0008480490084806900A
:100590000020059001A8FFF7ADFF09B000BD0000E5
:1005A0004B4559310000000000080140C10500081A
:1005B000390500084B455932000000000010014089
:1005C00038B504466846FFF795FE01211420FFF771
:1005D000A5FE04208DF803002089ADF800006946CF
:1005E0006068FFF7EAFD38BD10B5044614B94FF056
:1005F000FF3010BD21896068FFF773FEF9E770B521
:1006000004460D4614B94FF0FF3070BD21892A46CB
:100610006068FFF777FE0020F7E7000000B589B0BB
:1006200001A8FFF75BFF19A001901A480290202053
:10063000ADF80C001848049018480690184805902A
:1006400001A8FFF757FF17A0019012480290012060
:10065000ADF80C0010480490104806901048059022
:1006600001A8FFF747FF11A001900A48029002205D
:10067000ADF80C000848049008480690084805901A
:1006800001A8FFF737FF09B000BD00004C45443119
:1006900000000000000C0140B5060008E905000854
:1006A000FF0500084C454432000000004C4544332F
:1006B0000000000038B504466846FFF71BFE012124
:1006C0000820FFF72BFE03208DF8020010208DF884
:1006D00003002089ADF8000069466068FFF76DFDF2
:1006E00038BD51600A60486001607047006040603A
:1006F000704710B503460C461A4621465868FFF766
:10070000F0FF10BDFFF78AFFFFF722FF25A0FFF7DC
:10071000CFFE044625A0FFF7CBFE054625A0FFF738
:10072000C7FE064625A0FFF7C3FE07462046E16840
:1007300088472846E96888473046F1688847384640
:10074000F96888472CE0304671698847012810D144
:1007500020466169884780F0010000F0FF084146AB
:1007600020462269904700BF3046716988470128BA
:10077000FAD0384679698847012810D12846696936
:10078000884780F0010000F0FF08414628462A69AA
:10079000904700BF3846796988470128FAD000BFE2
:1007A000D1E700004C454431000000004C45443284
:1007B000000000004B455931000000004B45593204
:1007C00000000000F0B50B30154D20F007010024AB
:1007D000144A0FE003688B420BD38B4205D95E1A93
:1007E00043184768C3E9006700E04368136002C02C
:1007F00004E0021D10680028ECD12046002802D138
:10080000286808B10020F0BD064A07481060074A72
:10081000121A22F00702C0E9002401202860D7E75D
:100820000C0000200800002014000020100200200E
:10083000500800080000002010000000900400088C
:10084000600800081000002000060000A004000856
:100850000000002000000020000000000000000058
:0400000508000131BD
:00000001FF
